:100000000C943D010C9478010C9478010C947801C7
:100010000C9478010C9478010C9478010C9478017C
:100020000C94B4030C9478010C9478010C9478012E
:100030000C94DB010C9478010C9478010C94A503CA
:100040000C94E4020C9478010C9478010C947801DF
:100050000C9478010C9478010C9478010C9478013C
:100060000C9478010C9478010C9478010C9478012C
:100070000C9478010C9478010C947A010C9406028B
:100080000C945A020C9478010C9478014308BD0634
:10009000BD062208BD064008BD06BD06BD06D10747
:1000A000BD06BD06BD06BD06BD06BD0691076C07B3
:1000B000BD065707BD064E07BD06BD06BD06BD06FB
:1000C000BD06BD06BD06BD06BD06BD064308BD0690
:1000D000BD063D07BD064008BD06BD06BD061007AE
:1000E000BD06BD06BD06BD06BD06FB06EA06D90671
:1000F000BD06570707634236B79BD8A71A3968561B
:1001000018AEBAAB558C1D3CB7CC5763BD6DEDFD39
:10011000753EF6177231BF000000803F08000000F6
:10012000BE922449123EABAAAA2ABECDCCCC4C3EEC
:1001300000000080BEABAAAAAA3E00000000BF00DB
:100140000000803F0000000000084178D3BB4387D7
:10015000D1133D190E3CC3BD4282AD2B3E68EC82EB
:1001600076BED98FE1A93E4C80EFFFBE01C4FF7F70
:100170003F00000000006E616E00696E6600004086
:100180007A10F35A00A0724E18090010A5D4E800A6
:1001900000E87648170000E40B54020000CA9A3BBE
:1001A000000000E1F5050000809698000000404244
:1001B0000F000000A08601000000102700000000D2
:1001C000E803000000006400000000000A000000D6
:1001D00000000100000000002C76D888DC674F0882
:1001E00023DFC1DFAE59E1B1B796E5E3E453C63A88
:1001F000E651997696E8E6C28426EB898C9B62EDFF
:10020000407C6FFCEFBC9C9F40F2BAA56FA5F490B8
:10021000055A2AF75C936B6CF9676DC11BFCE0E42F
:100220000D47FEF520E6B500D0ED902E0300943585
:1002300077050080841E080000204E0A000000C8D8
:100240000C333333330F986E12831141EF8D211429
:10025000893BE65516CFFEE6DB18D1844B381BF7F9
:100260007C1D901DA4BBE424203284725E22810098
:10027000C9F124ECA1E53D27A30E11241FBECFEF49
:10028000D0E1DEBFCDBF17E0A0E0B1E0EAE3F1E3EB
:1002900000E00BBF02C007900D92A835B107D9F757
:1002A0002BE0A8E5B7E001C01D92A231B207E1F74B
:1002B000A89584B78F718093110B84B7807E84BF1B
:1002C00081B5886181BD11BC12E0CAE7D2E000E0CF
:1002D00006C022970109FE010BBF0E947A16C8379B
:1002E000D10780E00807A9F70E94610C0C949B18C5
:1002F0000C9400001F920F920FB60F9211240BB6B0
:100300000F928F939F93EF93FF9380919B008C713B
:10031000B1F080919B0082FF05C080915D078061F4
:1003200080935D0780919B0083FF05C080915D07EE
:10033000846080935D0780919B0084FD29C080913B
:100340002A0890912B088F5F8F77891771F1909110
:100350009C00E0912A08EF5FEF7780912B08E8136B
:1003600006C080912B088F5F8F7780932B08E093D6
:100370002A08F0E0E65DF74F9283FF91EF919F919D
:100380008F910F900BBE0F900FBE0F901F9018957E
:1003900080915D07886080935D0780912A08909125
:1003A0002B088F5F8F778913D2CF80915D07826092
:1003B00080935D07CCCF78941F920F920FB60F9267
:1003C00011242F938F939F93AF93BF932FB7F894DC
:1003D0008091580790915907A0915A07B0915B07F7
:1003E0000196A11DB11D8093580790935907A093C2
:1003F0005A07B0935B072FBFBF91AF919F918F9129
:100400002F910F900FBE0F901F9018951F920F9273
:100410000FB60F9211240BB60F922F933F938F9329
:100420009F93EF93FF932091AC083091AD0880919A
:10043000AE089091AF082817390759F12FB7F894F3
:100440008091AE089091AF08019699279093AF08DC
:100450008093AE08FC01E455F74F84812FBF809351
:100460009C002091AC083091AD088091AE0890912D
:10047000AF082817390799F0FF91EF919F918F915D
:100480003F912F910F900BBE0F900FBE0F901F90BA
:10049000189580919A008F7D80939A00EDCF80917E
:1004A0009A008F7D80939A0080919A008064809357
:1004B0009A00E2CF1F920F920FB60F9211242F9342
:1004C0003F938F939F9380919A008F7B80939A00A4
:1004D0002091AC083091AD088091AE089091AF08A2
:1004E0002817390711F410925C079F918F913F9163
:1004F0002F910F900FBE0F901F90189581E388BB2E
:1005000081EF87BB80E382BB80E781BB8CE283B94C
:1005100088E282B98FEF8BBB8ABB85BB84BB80EF3F
:10052000809361001092620088E080936500809360
:10053000640010BE84E083BF88E582BF11BE1092C4
:100540008B0087E080938A0010928C0010928900C3
:100550001092880010928100109280001092870003
:1005600010928600109285001092840010928300F1
:100570001092820010926A0080EC8ABF80E889BFE6
:1005800088BFA89593E097BF10927D0088B910BCF2
:1005900080E487B984E886B910BC21E0209317086D
:1005A00084E68093160882E090E090930A0180939D
:1005B00009018FEF90E09093080180930701C49A9E
:1005C000C79A2093000108951F920F920FB60F92C1
:1005D00011242F933F934F935F938F939F93809119
:1005E0000D01880F813408F081E080930D0112BE67
:1005F00020910D01822F809530910501982F932B2A
:100600009BBB40910601842B85BB81B7883098F055
:1006100097B1809119089817D1F087B18093190884
:100620009F918F915F914F913F912F910F900FBEAE
:100630000F901F90189592B781B79817E0F38FEF3E
:100640008BBB85BB97B1809119089813E6CF84B115
:1006500095B150911A08513049F1E0F43F3F09F447
:100660004DC0283009F458C0A8F5223009F45EC006
:10067000243009F456C0213021F4909377078093F9
:10068000760780911B088B3080F58F5F80931B0865
:10069000369AC6CF5230E1F790937B0780937A0762
:1006A00080E487B910921A08369ABACF2091690768
:1006B00021110BC090937D0780937C0782E487B95A
:1006C00082E080931A08369AABCF90937F0780938D
:1006D0007E07F4CF2032A1F1203469F1203189F670
:1006E0009093710780937007CCCF10921B0881E420
:1006F00087B981E080931A08369A92CF4F3F09F06C
:10070000B0CF909381078093800781E487B981E01F
:1007100080931A08369A84CF90936F0780936E0760
:10072000B0CF90936D0780936C07ABCF90936B071E
:1007300080936A07A6CF9093750780937407A1CF23
:1007400090937307809372079CCF1F920F920FB6FE
:100750000F9211248F938FEF8BBB85BB8F910F90DE
:100760000FBE0F901F9018951F920F920FB60F9209
:1007700011240F900FBE0F901F90189580915F0766
:1007800090916007209101013091020140911C0875
:1007900041110BC0109224081092250810922608CF
:1007A0001092270841E040931C08409128084130EE
:1007B00009F443C020F52817390718F521E02093E4
:1007C00028083FB7F8948091580790915907A09155
:1007D0005A07B0915B073FBF0C96A11DB11D8093D6
:1007E000240890932508A0932608B0932708209307
:1007F00069078091620080618093620008954230B1
:1008000009F008958FB7F89440915807509159070F
:1008100060915A0770915B078FBF80912408909177
:100820002508A0912608B0912708481759076A079C
:100830007B0738F31092280808958FB7F8944091F9
:1008400058075091590760915A0770915B078FBF05
:100850008091240890912508A0912608B09127083E
:10086000481759076A077B0760F210926907809161
:1008700062008F7E8093620082E0809328082FB709
:10088000F8948091580790915907A0915A07B09118
:100890005B072FBF8C509E4FAF4FBF4F80932408F4
:1008A00090932508A0932608B09327080895A0E008
:1008B000B0E0EDE5F4E00C945316FE01359641915D
:1008C00051919F0164E670E080EB99E00E9404186A
:1008D0001092140A4091B009442359F1E1EBF9E078
:1008E0000DC09093AD088093AC08DC01A455B74FC0
:1008F00014964C935FBF41914423D9F05FB7F894AD
:100900008091AC089091AD08019699272091AE088E
:100910003091AF088217930721F72091AE083091EC
:10092000AF082F5F3F4F33273093AF082093AE08B7
:10093000D8CF2091AC083091AD088091AE0890914D
:10094000AF082817390741F081E080935C07809158
:100950009A00806280939A00E2E00C946F16860FF2
:10096000971FDC010D900020E9F71197A81BB90B28
:10097000A60FB71F6A177B078CF4FC0121E030E05B
:10098000419140534A3010F020E030E06F5F7F4FDC
:10099000A617B707A9F72130310529F40E947E1662
:1009A0009C01C90108952DE93FEFFBCF8FE391E052
:1009B0009F938F9385E491E09F938F930E945704B8
:1009C0008AE090E00E94D00E82E591E09F938F93A1
:1009D00089E691E09F938F930E9457048AE090E00C
:1009E0000E94D00E86E791E09F938F930E94570458
:1009F0008AE090E00E94D00E88E891E09F938F9368
:100A00000E9457048AE090E00E94D00E8CEA91E0A8
:100A10009F938F930E9457048AE090E00E94D00E2B
:100A20008CEC91E09F938F930E9457048AE090E0B2
:100A30000E94D00E8AEE91E09F938F930E945704FC
:100A40008AE090E00E94D00E84E092E09F938F9322
:100A50000E9457048AE090E00E94D00E80E292E06B
:100A60009F938F930E9457048AE090E00E94D00EDB
:100A70008CE392E09F938F930E9457048AE090E06A
:100A80000E94D00E89E592E09F938F930E945704B5
:100A90008AE090E00E94D00E8CE892E09F938F93C2
:100AA0000E9457048AE090E00E94D00E84ED92E00C
:100AB0009F938F930E9457048AE090E00E94D00E8B
:100AC00087EF92E09F938F930E9457048DB79EB754
:100AD00080960FB6F8949EBF0FBE8DBF8AE090E05F
:100AE0000E94D00E8AE193E09F938F930E94570457
:100AF0008AE090E00E94D00E8DE393E09F938F9365
:100B00000E9457048AE090E00E94D00E81E693E0B4
:100B10009F938F930E9457048AE090E00E94D00E2A
:100B200086E893E09F938F930E9457048AE090E0B9
:100B30000E94D00E8BEA93E09F938F930E945704FC
:100B40008AE090E00E94D00E84ED93E09F938F9313
:100B50000E9457048AE090E00E94D00E87E194E062
:100B60009F938F930E9457048AE090E00E94D00EDA
:100B700080E394E09F938F930E9457048AE090E073
:100B80000E94D00E89E494E09F938F930E945704B3
:100B90008AE090E00E94D00E8BE594E09F938F93C3
:100BA0000E9457048AE090E00E94D00E8FE794E004
:100BB0009F938F930E9457048AE090E00E94D00E8A
:100BC0008DE894E09F938F930E9457048AE090E011
:100BD0000E94D00E87EA94E09F938F930E9457045F
:100BE0008AE090E00E94D00E8DB79EB74A960FB66D
:100BF000F8949EBF0FBE8DBF0895A3E0B0E0E3E080
:100C0000F6E00C9451168C019093600780935F0777
:100C10001F938F938AE096E09F938F931F9283E0B8
:100C20008F93CE0101969F938F930E94C71789815E
:100C300090E0C097EA8198012A5031090FB6F894E4
:100C4000DEBF0FBECDBF2A353105E8F001501109D6
:100C50000336110570F42FEF20930501FC01E45BCE
:100C6000F84F8081809306012396E4E00C946D1682
:100C70001AC08FEF80930501809306012396E4E06C
:100C80000C946D1610C0DC01A45BB84F8C9180935E
:100C90000501F0E0E45EF84F808180930601239621
:100CA000E4E00C946D160F931F93CF93DF93209184
:100CB0005D0710925D0790912A0880912B08981784
:100CC00061F18FB7F894E0912B08EF5FEF77E09335
:100CD0002B08F0E0E65DF74F32818FBF922F80E066
:100CE000832B811521E09207C1F08D309105D1F061
:100CF0008A309105B9F02091150A3091160A2A3FE1
:100D0000310509F44DC0F901E95EF54F80832F5F8D
:100D10003F4F3093160A2093150ADF91CF911F9110
:100D20000F910895C7E1DAE0E091150AF091160AF3
:100D3000EC0FFD1F10821092160A1092150A809176
:100D4000170A8A3289F0DF93CF938AE996E09F935E
:100D50008F930E9457040F900F900F900F90DF9188
:100D6000CF911F910F9108958091180A90E0FC0196
:100D7000E354F109E433F10578F087E19AE09F93B9
:100D80008F9383EF94E09F938F930E9457040F906B
:100D90000F900F900F90C1CFEA5BFF4F0C9431166C
:100DA0001092160A1092150ADF91CF911F910F91A0
:100DB0000895809104018F93809103018F9383E1C3
:100DC00095E09F938F930E9457040F900F900F9080
:100DD0000F90A3CF809160078F9380915F078F93CF
:100DE00080E095E09F938F930E9457040F900F909F
:100DF0000F900F9092CF6BEE74E087E19AE00E9423
:100E00007F17009709F0B9CF8CE295E09F938F93FD
:100E10000E94570484E690E00E94C20E0E94DE0EFB
:100E200080915E0790910001913009F47EC11F927C
:100E30008F9381EE94E09F938F931F9284E68F931C
:100E400082E897E09F938F930E94C7178DB79EB754
:100E500008960FB6F8949EBF0FBE8DBF82E897E04C
:100E60009F938F938FE596E09F938F930E945704F3
:100E70000F900F900F900F9050CF809102018F93A1
:100E8000809101018F9380EB94E09F938F930E9458
:100E900057040F900F900F900F903FCF80E996E08E
:100EA0009F938F930E9457040F900F9036CF82E547
:100EB00091E09F938F938FE391E09F938F938CE7C3
:100EC00096E09F938F930E9457040F900F900F907E
:100ED0000F900F900F9021CF09900020E9F72197F4
:100EE000C751DA40239708F4DBC062E070E087E185
:100EF0009AE00E94AF04893542E0940708F0D0C020
:100F000090930401809303019F938F9383E696E06F
:100F10009F938F930E9457040F900F900F900F9004
:100F2000FCCE62E070E087E19AE00E94AF04EC0141
:100F3000AC01415051094336510508F0C0C00E9430
:100F4000FD05209103013091040184E6829FA001F8
:100F5000839F500D112460E070E08FB7F8940091EA
:100F600058071091590720915A0730915B078FBF9E
:100F7000400F511F621F731F409365075093660710
:100F80006093670770936807DF93CF9382E296E0E0
:100F90009F938F930E9457040F900F900F900F9084
:100FA000BCCE07E11AE009900020E9F72197C01BA9
:100FB000D10B239708F4A1C062E070E087E19AE0CA
:100FC0000E94AF04AC014D399FEF590709F4C5C029
:100FD0004115510509F4E8C0CA010197843691050D
:100FE00008F0FFC01092000140935E07423009F400
:100FF00010C18FEF849F9001859F300D112436958D
:10100000279536952795ABE7B4E10E94371696955C
:10101000879581BF5F934F9380E096E09F938F9376
:101020001F9284E68F9382E897E09F938F930E94AC
:10103000C7178DB79EB708960FB6F8949EBF0FBE20
:101040008DBF0CCF62E070E087E19AE00E94AF04B0
:10105000AC01415051094336510508F03FC090930F
:101060000201809301019F938F9380E395E09F930A
:101070008F930E9457040F900F900F900F904DCEBA
:101080000E94D6044ACE80E090E00E94FD0589E2ED
:1010900095E09F938F930E9457040F900F903DCE41
:1010A00087E19AE09F938F938DE496E09F938F93CF
:1010B0000E9457040F900F900F900F902ECE87E153
:1010C0009AE09F938F9388E396E09F938F930E947B
:1010D00057040F900F900F900F901FCE87E19AE06A
:1010E0009F938F9380E595E09F938F930E94570481
:1010F0000F900F900F900F9010CE1F930F9385E6D7
:1011000095E09F938F931F9284E68F9382E897E0F8
:101110009F938F930E94C7178DB79EB708960FB6FF
:10112000F8949EBF0FBE8DBF99CE1F928F938DEC0A
:1011300094E09F938F931F9284E68F9382E897E0C9
:101140009F938F930E94C7178DB79EB708960FB6CF
:10115000F8949EBF0FBE8DBF81CE8091190A833453
:1011600009F471C008F058C0813409F4B0C0823469
:1011700009F49CC087E19AE09F938F9385ED95E0F9
:101180009F938F931F9284E68F9382E897E09F93BB
:101190008F930E94C7178DB79EB708960FB6F89425
:1011A0009EBF0FBE8DBF5ACE81E08093000180911B
:1011B0005E071F928F9388EE95E09F938F931F9207
:1011C00084E68F9382E897E09F938F930E94C717DE
:1011D0008DB79EB708960FB6F8949EBF0FBE8DBF11
:1011E0003DCE1F930F938DE096E09F938F931F92B8
:1011F00084E68F9382E897E09F938F930E94C717AE
:101200008DB79EB708960FB6F8949EBF0FBE8DBFE0
:1012100025CE84E081BFFECE8534B9F128F1863435
:1012200009F0A8CF1092000184E680935E078FEF4B
:1012300081BF8FE0E6ECF5E0A2E8B7E001900D9207
:101240008A95E1F70BCE1092000186E080935E074D
:101250008FE081BF8DE0ECE9F5E0A2E8B7E0019016
:101260000D928A95E1F7FACD1092000184E1809306
:101270005E0783E381BF8EE0E9EAF5E0A2E8B7E02C
:1012800001900D928A95E1F7E9CD1092000184E674
:1012900080935E078FEF81BF8FE0E7EBF5E0A2E878
:1012A000B7E001900D928A95E1F7D8CD1092000138
:1012B00084E080935E078AE081BF8DE0EFE8F5E08F
:1012C000A2E8B7E001900D928A95E1F7C7CD1092A0
:1012D000000182E080935E0784E081BF8DE0E2E858
:1012E000F5E0A2E8B7E001900D928A95E1F7B6CD5E
:1012F0000F931F93CF93DF93882309F4CFC08130DE
:1013000049F060E070E080E090E0DF91CF911F91C4
:101310000F9108956091E8077091E90780E090E0EF
:101320000E94911320E030E0A9010E9495128B01E8
:10133000D82FC92F6091EA077091EB0780E090E009
:101340000E949113FE01202F312F4F2F5E2F0E94FC
:1013500095128B01D82FC92F6091EC077091ED0782
:1013600080E090E00E949113FE01202F312F4F2F3B
:101370005E2F0E9495128B01D82FC92F6091EE0726
:101380007091EF0780E090E00E949113FE01202F02
:10139000312F4F2F5E2F0E9495128B01D82FC92F0E
:1013A0006091F0077091F10780E090E00E94911346
:1013B000FE01202F312F4F2F5E2F0E9495128B019F
:1013C000D82FC92F6091F2077091F30780E090E069
:1013D0000E949113FE01202F312F4F2F5E2F0E946C
:1013E00095128B01D82FC92F6091F4077091F507E2
:1013F00080E090E00E949113FE01202F312F4F2FAB
:101400005E2F0E9495128B01D82FC92F6091F6078D
:101410007091F70780E090E00E949113FE01202F69
:10142000312F4F2F5E2F0E9495128B01D82FC92F7D
:101430006091F8077091F90780E090E00E949113A5
:10144000FE01202F312F4F2F5E2F0E9495128B010E
:10145000D82FC92F6091FA077091FB0780E090E0C8
:101460000E949113FE01202F312F4F2F5C2F0E94DD
:1014700095129B01AC010E94951227ED33EA40E3DF
:101480005FE30E94471421EE3AE744ED5FE30E94D8
:101490004714DF91CF911F910F9108956091FE073E
:1014A0007091FF0780E090E00E94911320E030E00F
:1014B000A9010E9495128B01D82FC92F60910008B5
:1014C0007091010880E090E00E949113FE01202FAE
:1014D000312F4F2F5E2F0E9495128B01D82FC92FCD
:1014E000609102087091030880E090E00E949113DF
:1014F000FE01202F312F4F2F5E2F0E9495128B015E
:10150000D82FC92F609104087091050880E090E001
:101510000E949113FE01202F312F4F2F5E2F0E942A
:1015200095128B01D82FC92F60910608709107087A
:1015300080E090E00E949113FE01202F312F4F2F69
:101540005E2F0E9495128B01D82FC92F6091080839
:101550007091090880E090E00E949113FE01202F15
:10156000312F4F2F5E2F0E9495128B01D82FC92F3C
:1015700060910A0870910B0880E090E00E9491133E
:10158000FE01202F312F4F2F5E2F0E9495128B01CD
:10159000D82FC92F60910C0870910D0880E090E061
:1015A0000E949113FE01202F312F4F2F5E2F0E949A
:1015B00095128B01D82FC92F60910E0870910F08DA
:1015C00080E090E00E949113FE01202F312F4F2FD9
:1015D0005E2F0E9495128B01D82FC92F60911008A1
:1015E000709111083BCF4F925F926F927F928F92D2
:1015F0009F92AF92BF920F931F93CF93DF938091EF
:101600000001811137C020910B0120935E07223029
:1016100009F4F1C08FEF289F90011124369527958A
:1016200036952795ABE7B4E10E94371696958795D6
:1016300081BF80910B0190910C019F938F939F9399
:101640008F938EE091E09F938F930E9457040F90A9
:101650000F900F900F900F900F90DF91CF911F91EF
:101660000F91BF90AF909F908F907F906F905F9001
:101670004F90089580E00E9478094B015C0128E3B7
:101680003EEB46EF5EE30E94AA142DE53DEC45ECEF
:1016900052E40E94471426E636E646EC5FE30E94D9
:1016A00047148B01D82FC92F20E030E046E953E4DE
:1016B000FE01712F8F2F9E2F0E94F91287FD76C099
:1016C00020E030E44CE157E4FE01602F712F8F2FB2
:1016D0009E2F0E94FD1220E030E04FE753E40E946D
:1016E00047148B01D82FC92F20E030E04FE753E497
:1016F000FE01712F8F2F9E2F0E944314181624F481
:1017000000E010E0DFE7C3E46091090170910A0195
:1017100080E090E00E9491132B013C01762F272F4F
:10172000352D462D572DFE01602F712F8F2F9C2FA9
:101730000E94F91287FD03C028016D2E7C2E609156
:1017400007017091080180E090E00E9491138B01E5
:10175000D82FC92F762FCE01272F312F492F582F61
:10176000642D752D862D972D0E94431418161CF09C
:101770008201D62DC72D20E030E040EE50E4FE017E
:10178000602F712F8F2F9C2F0E94F91287FD13C09D
:101790009E01602F712F832F9C2F0E9465136093F1
:1017A0005E07623059F584E081BF0AC00CEC1CEC86
:1017B000D4EFCFE3A9CF87E080935E0781E181BFBB
:1017C000C501B4010E946513609314087093150855
:1017D00080915E071F928F937F936F9381EB96E0CA
:1017E0009F938F930E9457040F900F900F900F902C
:1017F0000F900F9032CF84E081BF1BCF8FEF689F97
:10180000900111243695279536952795ABE7B4E1DD
:101810000E94371696958795D2CF10925D07109249
:101820005C078FB7F89410922B0810922A088FBF8C
:101830008FB7F8941092AF081092AE081092AD08CE
:101840001092AC088FBF1092980085E080939900A9
:1018500086E080939D00EAE9F0E0808188608083E3
:101860008081806180838081806880830895109268
:101870005D0710925C078FB7F89410922B081092B6
:101880002A088FBF8FB7F8941092AF081092AE0855
:101890001092AD081092AC088FBF1092980085E0AE
:1018A0008093990086E080939D00EAE9F0E08081D2
:1018B000886080838081806180838081806880836C
:1018C0000895AAE0B0E0E7E6FCE00C9443160E941D
:1018D000370C0E947E021FBC89E08EBD82E39BE232
:1018E0009BBD8ABD87B7806187BF139A119A8B9A77
:1018F000BA9ABB9A809162008F7E80936200809139
:10190000610080618093610010988A9878948CECD3
:1019100096E09F938F930E9457041F928AE28F93C1
:101920008AED96E09F938F930E94570487E08093FF
:101930005E0781E181BF0F900F900F900F900F9085
:101940000F90812C912C5401412C512C3201198281
:101950001A821B821C821D821E821F821886C12C45
:10196000D12C76012224239400E317E0A8950E944D
:1019700053060E94BE038091030190910401892BBC
:10198000E1F08FB7F8944091580750915907609152
:101990005A0770915B078FBF80916507909166072A
:1019A000A0916707B0916807481759076A077B0736
:1019B00020F080E090E00E94FD058FB7F894409100
:1019C00058075091590760915A0770915B078FBF74
:1019D0008091610790916207A0916307B0916407BD
:1019E000481759076A077B07C0F12FB7F894809111
:1019F000580790915907A0915A07B0915B072FBFE4
:101A00008C599F4FAF4FBF4F8093610790936207F0
:101A1000A0936307B0936407809188009091890038
:101A20001092890010928800E091E707EA3008F4EC
:101A300044C11092E707E0E0F0E08A3929E192071B
:101A400010F089E999E1EE0FFF1FE250F84F918302
:101A5000808390931308809312082FB7F894809195
:101A6000580790915907A0915A07B0915B072FBF73
:101A700029813A814B815C8182179307A407B507BE
:101A8000E0F08FB7F89420915807309159074091B2
:101A90005A0750915B078FBF2854344F4F4F5F4F09
:101AA00029833A834B835C8380912908882309F436
:101AB00009C11B9A8225809329082FB7F894809139
:101AC000580790915907A0915A07B0915B072FBF13
:101AD0008C159D05AE05BF05B0F08FB7F894C0908A
:101AE0005807D0905907E0905A07F0905B078FBFD6
:101AF00030E1C30E37E2D31EE11CF11C80910001DE
:101B0000813009F4E1C02FB7F89480915807909183
:101B10005907A0915A07B0915B072FBF841595050F
:101B2000A605B70508F44AC08FB7F8944090580747
:101B30005090590760905A0770905B078FBF30E252
:101B4000430E3FEB531E32E0631E711CA09114083C
:101B5000B0911508E0910101F0910201409103015B
:101B60005091040120915F07309160073FB6F894CF
:101B7000609158077091590780915A0790915B07BF
:101B80003FBEBF93AF93FF93EF935F934F933F930A
:101B90002F9328EE33E040E050E00E940F165F9351
:101BA0004F933F932F934DEE56E05F934F930E94D8
:101BB00057040FB6F894DEBF0FBECDBF2FB7F89411
:101BC0008091580790915907A0915A07B0915B07EF
:101BD0002FBF88159905AA05BB0508F4C7CE8FB796
:101BE000F8948090580790905907A0905A07B090A9
:101BF0005B078FBFB0EE8B0EB3E99B1EB4E0AB1E4C
:101C0000B11C20917A0730917B0780917E079091DB
:101C10007F073F932F939F938F93EBE0F7E0FF9322
:101C2000EF930E94570420917C0730917D078091AB
:101C30008007909181073F932F939F938F932DE17E
:101C400037E03F932F930E9457048091760790913D
:101C500077079A878987A0917407B0917507E091FB
:101C60007207F0917307609170077091710740914E
:101C70006E0750916F0720916C0730916D0780912E
:101C80006A0790916B073A843F9239843F92BF93E1
:101C9000AF93FF93EF937F936F935F934F933F9334
:101CA0002F939F938F931F930F930E9457040FB608
:101CB000F894DEBF0FBECDBF59CEEF5FE093E707CC
:101CC000F0E0BBCE1B98F6CE2091010130910201CD
:101CD00080915F07909160078217930708F013CFF8
:101CE0002FB7F8948091580790915907A0915A07FF
:101CF000B0915B072FBF2D813E814F8158858217A0
:101D00009307A407B50708F4FECE8FB7F894209187
:101D100058073091590740915A0750915B078FBF80
:101D2000205C324F4C4F5F4F2D833E834F8358874B
:101D300010926907809162008F7E8093620081E03B
:101D40000E94F30AE0CE88E198E00E940D0C1FBCCF
:101D500089E08EBD82E39BE29BBD8ABD87B780612F
:101D600087BF10926507109266071092670710925E
:101D70006807109261071092620710926307109231
:101D8000640708959C0121503109892B41F04CECE6
:101D90005AE0CA010197F1F721503109D0F70895AF
:101DA0009C0121503109892B41F04CEC5AE0CA01C9
:101DB0000197F1F721503109D0F70895F89428E000
:101DC00088E190E00FB6F894A89581BD0FBE21BDC3
:101DD000FFCF2F923F924F925F926F927F928F929E
:101DE0009F92AF92BF92CF92DF92EF92FF920F93AA
:101DF0001F93CF93DF93CDB7DEB762970FB6F894FA
:101E0000DEBF0FBECDBF7C011B016A01FC01178242
:101E10001682838181FD03C06BC3650105C08824E0
:101E20008394912C8C0E9D1EF7019381F10193FDFB
:101E3000859193FF81911F01882309F455C3853251
:101E400039F493FD859193FF81911F01853231F41F
:101E5000B70190E00E949B175601DFCF712C612CD7
:101E600020E02032A8F48B3261F028F4803251F067
:101E7000833271F40BC08D3239F0803349F4216024
:101E800028C02260246025C0286023C0206121C0B2
:101E900027FD27C0382F30533A3078F426FF06C08C
:101EA000FAE07F9E300D1124732E13C04AE0649E29
:101EB000300D1124632E20620CC08E3221F426FDD9
:101EC00013C3206406C08C3611F4206802C0883623
:101ED00041F4F10193FD859193FF81911F018111DF
:101EE000C0CF982F9554933018F42061805E06C0BF
:101EF000982F9556933008F0A4C12F7E26FD02C07E
:101F000016E0712EBFE35B2E5222853619F4F0E401
:101F10005F2A07C0863619F440E8542A02C07110BF
:101F20007A9457FE07C05BE3571548F0472C43945B
:101F300027E00DC087E0871530F0272D07C027E088
:101F4000ACE34A2E04C027E0F7E07F2E412C560177
:101F500094E0A90EB11CF6016081718182819381A8
:101F6000042DA4010E949C168C0149814C8740FFDE
:101F700002C043FF07C051FC08C052FE09C0E0E2A6
:101F8000DE2E07C07DE2D72E04C06BE2D62E01C044
:101F9000D12C8C858C70A1F1DD2011F084E001C082
:101FA00083E0861510F0612C0BC0681A53FC08C042
:101FB000B70180E290E00E949B176A94C9F7F3CFC3
:101FC000DD2029F0B7018D2D90E00E949B175C85E4
:101FD00053FD03C00AE711E00CC006E711E009C099
:101FE00051108052B70190E00E949B170F5F1F4F66
:101FF00002C080E15822F80184918111F1CF71C2B1
:1020000057FE0EC0400E4C8544FF04C08A818133C8
:1020100009F44A9414144CF558E0541548F12CC0B6
:1020200056FC2AC0872D90E08017910744F00C3FA2
:102030008FEF180724F090E8592A01C07A9477208E
:1020400049F0E2E0F0E0EC0FFD1FE70DF11D8081AB
:102050008033A1F357FE10C0472C4394872D90E0A6
:102060000817190744F4701A07C04424439404C0A5
:1020700058E0452E01C0712C57FE07C010161106FE
:102080003CF498012F5F3F4F05C025E030E002C0CF
:1020900021E030E0DD2011F02F5F3F4F772031F05D
:1020A000472D50E04F5F5F4F240F351F462D50E006
:1020B0002417350714F4621A01C0612C852D89702C
:1020C00049F406C0B70180E290E00E949B176A9431
:1020D0006110F8CFDD2029F0B7018D2D90E00E942E
:1020E0009B1753FC09C006C0B70180E390E00E9433
:1020F0009B176A946110F8CF57FE56C0680117FF0E
:1021000002C0C12CD12C20E030E0A80144195109B3
:102110005E874D8728014C185D08480C591C872D97
:1021200090E044275527481B590B588B4F875FEF8A
:10213000C516D50649F4B7018EE290E02A8B398B9B
:102140000E949B1739892A890C151D0554F04D856D
:102150005E854C155D052CF4F201E20FF31F8181C1
:1021600001C080E351E0C51AD1082F5F3F4F4F8572
:102170005889C416D5064CF0B70190E02A8B398BEC
:102180000E949B172A893989D2CFC016D10649F4FB
:102190009A81963328F4953321F45C8554FD01C06F
:1021A00081E3B70190E04AC08A81813319F04C8500
:1021B0004F7E4C87B70190E00E949B17711005C0BD
:1021C00054FE16C085E490E015C0B7018EE290E0A1
:1021D0000E949B1742E0D42EF401ED0DF11DD39423
:1021E000B701808190E00E949B177A94A9F7E8CF0D
:1021F00085E690E0B7010E949B1717FD06C0011508
:10220000110541F45C8554FF05C011950195110934
:102210008DE201C08BE2B70190E00E949B1780E342
:1022200003C08F5F0A5011090A301105D4F7B701B6
:1022300090E00E949B17B701C801C0960E949B17AF
:1022400050C1833631F0833781F0833509F05EC0A9
:1022500024C0560182E0A80EB11CF601808189835A
:10226000CC24C394D12C840114C05601F2E0AF0EEB
:10227000B11CF6010081118126FF03C0672D70E0BB
:1022800002C06FEF7FEFC8012A8B0E9488176C0194
:102290002A899FE7592E522217C05601F2E0AF0E4D
:1022A000B11CF6010081118126FF03C0672D70E08B
:1022B00002C06FEF7FEFC8012A8B0E9474176C0178
:1022C0002A8980E8582E522A53FC1CC006C0B70148
:1022D00080E290E00E949B176A94862D90E0C816D9
:1022E000D906A8F30FC0F80157FC859157FE8191DC
:1022F0008F01B70190E00E949B1761106A94F1E092
:10230000CF1AD108C114D10471F7EBC0843611F093
:10231000893651F5560127FF09C044E0A40EB11CCF
:10232000F60160817181828193810AC0F2E0AF0E73
:10233000B11CF60160817181882777FD8095982F07
:10234000122F1F7697FF08C0909580957095619524
:102350007F4F8F4F9F4F10682AE030E0A4010E940A
:102360003D18D82ED81840C0122F853721F41F7E73
:102370002AE030E01FC0197F8F36A1F020F48835A5
:1023800009F0B2C00BC0803721F0883709F0ACC02B
:1023900001C0106114FF09C0146007C024FF08C009
:1023A000166006C028E030E005C020E130E002C041
:1023B00020E132E0560117FF09C0F4E0AF0EB11C76
:1023C000F601608171818281938108C0F2E0AF0ED5
:1023D000B11CF6016081718180E090E0A4010E944F
:1023E0003D18D82ED8181F7716FF0BC0212F2E7F2F
:1023F000D71450F414FF0AC012FD08C0212F2E7EFE
:1024000005C00D2D212F03C00D2D01C0072D24FF68
:102410000CC0FE01ED0DF11D8081803311F4297E89
:1024200008C022FF05C00E5F04C0822F867809F025
:102430000F5F23FD14C020FF0FC07D2C061560F434
:10244000760C701A062D08C0B70180E290E02A8B46
:102450000E949B170F5F2A890615B0F304C006156A
:1024600010F4601A01C0612C24FF12C0B70180E390
:1024700090E02A8B0E949B172A8922FF1EC021FF11
:1024800003C088E590E002C088E790E0B7010CC087
:10249000822F867891F021FD02C080E201C08BE29C
:1024A00027FD8DE2B70190E00E949B1706C0B7019F
:1024B00080E390E00E949B177A94D714C0F3DA94DB
:1024C000F401ED0DF11DB701808190E00E949B1792
:1024D000D110F5CF06C0B70180E290E00E949B17B3
:1024E0006A946110F8CF99CCF7012681378102C038
:1024F0002FEF3FEFC90162960FB6F894DEBF0FBE13
:10250000CDBFDF91CF911F910F91FF90EF90DF90A2
:10251000CF90BF90AF909F908F907F906F905F9083
:102520004F903F902F9008955058BB27AA270ED068
:1025300070C161D130F066D120F031F49F3F11F4C9
:102540001EF456C10EF4E095E7FB4CC1E92F72D1A1
:1025500080F3BA17620773078407950718F071F4C0
:102560009EF58AC10EF4E0950B2EBA2FA02D0B011B
:10257000B90190010C01CA01A0011124FF27591BC8
:1025800099F0593F50F4503E68F11A16F040A22FCE
:10259000232F342F4427585FF3CF4695379527953F
:1025A000A795F0405395C9F77EF41F16BA0B620B3E
:1025B000730B840BBAF09150A1F0FF0FBB1F661F85
:1025C000771F881FC2F70EC0BA0F621F731F841FC8
:1025D00048F4879577956795B795F7959E3F08F0EE
:1025E000B3CF9395880F08F09927EE0F97958795AD
:1025F0000895D4D008F481E008950CD00AC102D126
:1026000040F0F9D030F021F45F3F19F0EBC05111E8
:1026100034C1EEC00FD198F39923C9F35523B1F318
:10262000951B550BBB27AA2762177307840738F041
:102630009F5F5F4F220F331F441FAA1FA9F333D0A0
:102640000E2E3AF0E0E830D091505040E695001C54
:10265000CAF729D0FE2F27D0660F771F881FBB1F10
:10266000261737074807AB07B0E809F0BB0B802DEA
:10267000BF01FF2793585F4F2AF09E3F510568F036
:10268000B1C0FBC05F3FECF3983EDCF386957795D5
:102690006795B795F7959F5FC9F7880F911D969538
:1026A000879597F90895E1E0660F771F881FBB1F94
:1026B000621773078407BA0720F0621B730B840B41
:1026C000BA0BEE1F88F7E0950895BCD088F09F57AD
:1026D00090F0B92F9927B751A0F0D1F0660F771F6E
:1026E000881F991F1AF0BA95C9F712C0B13081F04E
:1026F000C3D0B1E00895C0C0672F782F8827B85F96
:1027000039F0B93FCCF3869577956795B395D9F7AE
:102710003EF490958095709561957F4F8F4F9F4FB8
:102720000895E89409C097FB3EF4909580957095C4
:1027300061957F4F8F4F9F4F9923A9F0F92F96E90D
:10274000BB279395F695879577956795B795F11182
:10275000F8CFFAF4BB0F11F460FF1BC06F5F7F4F1F
:102760008F4F9F4F16C0882311F096E911C0772331
:1027700021F09EE8872F762F05C0662371F096E83A
:10278000862F70E060E02AF09A95660F771F881F09
:10279000DAF7880F9695879597F90895990F0008AD
:1027A000550FAA0BE0E8FEEF16161706E807F90723
:1027B000C0F012161306E407F50798F0621B730BBE
:1027C000840B950B39F40A2661F0232B242B252B3F
:1027D00021F408950A2609F4A140A6958FEF811DE2
:1027E000811D089597F99F6780E870E060E0089583
:1027F0009FEF80EC089500240A9416161706180619
:102800000906089500240A941216130614060506F4
:102810000895092E0394000C11F4882352F0BB0F85
:1028200040F4BF2B11F460FF04C06F5F7F4F8F4FE8
:102830009F4F089557FD9058440F551F59F05F3F23
:1028400071F04795880F97FB991F61F09F3F79F0D2
:1028500087950895121613061406551FF2CF469554
:10286000F1DF08C0161617061806991FF1CF8695D6
:102870007105610508940895E894BB2766277727BA
:10288000CB0197F908958ADF08F48FEF08950BD0F4
:10289000C0CFB1DF28F0B6DF18F0952309F0A2CF42
:1028A000A7CF1124EACFC6DFA0F3959FD1F3950FF0
:1028B00050E0551F629FF001729FBB27F00DB11DC4
:1028C000639FAA27F00DB11DAA1F649F6627B00D54
:1028D000A11D661F829F2227B00DA11D621F739F3D
:1028E000B00DA11D621F839FA00D611D221F749F4B
:1028F0003327A00D611D231F849F600D211D822F92
:10290000762F6A2F11249F5750408AF0E1F08823D8
:102910004AF0EE0FFF1FBB1F661F771F881F9150E5
:102920005040A9F79E3F510570F05CCFA6CF5F3FA6
:10293000ECF3983EDCF3869577956795B795F79518
:10294000E7959F5FC1F7FE2B880F911D96958795A0
:1029500097F90895FA01EE0FFF1F30962105310512
:1029600099F16115710561F48038BFE39B0749F166
:1029700068949038810561F08038BFEF9B0741F083
:10298000992342F5FF3FE1053105210511F1E89456
:102990000894E795D901AA2329F4AB2FBE2FF85F3D
:1029A000D0F310C0FF5F70F4A695E0F7F73950F050
:1029B00019F0FF3A38F49F779F930CD00F9007FCE3
:1029C000905808953EF014CF60E070E080E89FE3F7
:1029D00008954FE79F775F934F933F932F939ED038
:1029E0002F913F914F915F9152DF05C019F40EF086
:1029F000F9CE42CFFDCE26DFC8F39638C0F707F8F0
:102A00000F92E8942BE33AEA48EB5FE74EDF0F9230
:102A10000F920F924DB75EB70F92C0D0E4EFF0E087
:102A200016D04F915F91EF91FF91E595EE1FFF1F3B
:102A300049F0FE57E0684427EE0F441FFA95E1F78E
:102A40004195550B32D00F9007FE26C00895DF93B5
:102A5000CF931F930F93FF92EF92DF927B018C0134
:102A6000689405C0DA2EEF011EDFFE01E894A591FF
:102A70002591359145915591AEF3EF0167DDFE014A
:102A80009701A801DA9479F7DF90EF90FF900F910A
:102A90001F91CF91DF9108959B01AC0160E070E040
:102AA00080E89FE3AACD9ECEACC0CCDEE8F39923AC
:102AB000D9F3940F511DBBF39150504094F059F04D
:102AC000882332F0660F771F881F91505040C1F75E
:102AD0009E3F510544F7880F911D9695879597F96C
:102AE00008955F3FACF0983E9CF0BB2786957795A4
:102AF0006795B79508F4B1609395C1F7BB0F58F788
:102B000011F460FFE8CF6F5F7F4F8F4F9F4FE3CF90
:102B1000B4CE0EF076C06CCE689464CE93DEC8F36B
:102B20009923D1F3C6F3DF93CF931F930F93FF92B3
:102B3000C92FDD2788232AF02197660F771F881F6A
:102B4000DAF720E030E040E85FEB9FE3883920F0DF
:102B5000803E30F021968F77E8DCECE1F1E003C0B5
:102B6000E4DCE9E4F1E073DF8B01BE01EC01FB2E54
:102B70006F5771097595771F880B990BD4DD28E184
:102B800032E741E35FE38FDEAF2D9801AE01FF90A6
:102B90000F911F91CF91DF91D9DC3BCEFA01DC017F
:102BA000AA0FBB1F9B01AC01BF5728F42227332774
:102BB000442750781FC0B75188F4AB2F00244695A6
:102BC00037952795011CA395D2F3002069F0220FB9
:102BD000331F441FB395DAF30DD0A6CC61307105D5
:102BE000A0E88A07B94630F49B01AC016627772735
:102BF00088279078309621F0208331834283538355
:102C000008959F3F31F0915020F48795779567950F
:102C1000B795880F911D9695879597F90895A1E22C
:102C20001A2EAA1BBB1BFD010DC0AA1FBB1FEE1F46
:102C3000FF1FA217B307E407F50720F0A21BB30B91
:102C4000E40BF50B661F771F881F991F1A9469F70D
:102C500060957095809590959B01AC01BD01CF0169
:102C60000895EE0FFF1F0590F491E02D0994A29FA7
:102C7000B001B39FC001A39F01D0B29F700D811D11
:102C80001124911D08952F923F924F925F926F925F
:102C90007F928F929F92AF92BF92CF92DF92EF92EC
:102CA000FF920F931F93CF93DF93CDB7DEB7CA1B6D
:102CB000DB0B0FB6F894DEBF0FBECDBF09942A8898
:102CC000398848885F846E847D848C849B84AA8440
:102CD000B984C884DF80EE80FD800C811B81AA81CD
:102CE000B981CE0FD11D0FB6F894DEBF0FBECDBF98
:102CF000ED0108950790F691E02D0994FC018827D5
:102D00009927E89421912032E9F3293010F02E30F0
:102D1000C8F32B3241F02D3239F4689404C00E947C
:102D20009317820F911D219120532A30C0F31EF476
:102D3000909581959F4F0895283008F027E033271C
:102D4000DA01990F311D87FD9160009661057105CB
:102D500039F432602E5F3D9330E32A95E1F7089510
:102D60009F3F30F080387105610509F03C5F3C5FA2
:102D70003D93913008F08068911DDF93CF931F93AE
:102D80000F93FF92EF92192F987F9695E92F9695C2
:102D90009695E90FFF27E852FE4F99273327EE2437
:102DA000FF24A701E70105900894079428F4360F43
:102DB000E71EF81E491F511D660F771F881F991FB8
:102DC0000694A1F70590079428F4E70EF81E491F12
:102DD000561FC11D770F881F991F661F0694A1F704
:102DE0000590079428F4F80E491F561FC71FD11DE0
:102DF000880F991F661F771F0694A1F70590079407
:102E000020F4490F561FC71FD81F990F661F771F41
:102E1000881F0694A9F784911095177041F0D695F4
:102E2000C79557954795F794E7941A95C1F7EEE73C
:102E3000F1E0689415901591359165919591059003
:102E40007FE27395E118F10A430B560BC90BD009C9
:102E5000C0F7E10CF11E431F561FC91FD01D7EF4A1
:102E6000703311F48A95E6CFE894015030F0080FE2
:102E70000AF40027021708F4202F2395022F7A3333
:102E800028F079E37D932A95E9F710C07D932A9580
:102E900089F6069497956795379517951794E118D5
:102EA000F10A430B560BC90BD00998F023957E917C
:102EB00073957A3308F070E37C932013B8F77E9112
:102EC00070617D9330F0839571E37D9370E32A9573
:102ED000E1F71124EF90FF900F911F91CF91DF91B7
:102EE000992787FD90950895FC01059061507040E9
:102EF0000110D8F7809590958E0F9F1F0895FB01C4
:102F0000DC018D91019080190110D9F3990B08957E
:102F1000FC016150704001900110D8F780959095A8
:102F20008E0F9F1F08957AE0979F902D879F802D89
:102F3000910D112408950F931F93CF93DF938C016C
:102F4000EB018B8181FD03C00FEF1FEF1AC082FFE1
:102F50000DC02E813F818C819D812817390764F433
:102F6000E881F9810193F983E88306C0E885F98552
:102F7000802F0995892B41F78E819F8101969F8330
:102F80008E83C801DF91CF911F910F9108950F9308
:102F90001F93CF93DF93CDB7DEB72E970FB6F8947C
:102FA000DEBF0FBECDBF0D891E898F89988D26E0AB
:102FB0002C831A83098397FF02C080E090E8019771
:102FC0009E838D83CE014B96AC01698D7A8DCE01A7
:102FD00001960E94E90E4D815E8157FD0AC02F8146
:102FE0003885421753070CF49A01F801E20FF31FDA
:102FF00010822E960FB6F894DEBF0FBECDBFDF91C4
:10300000CF911F910F9108950F931F93CF93DF934B
:10301000CDB7DEB72E970FB6F894DEBF0FBECDBF8B
:103020008C01CA0146E04C831A83098377FF02C0F2
:1030300060E070E8615071097E836D83A901BC0175
:10304000CE0101960E94E90E4D815E8157FD0AC0B6
:103050002F813885421753070CF49A01F801E20FCB
:10306000F31F10822E960FB6F894DEBF0FBECDBFB1
:10307000DF91CF911F910F910895FA01AA2728306F
:1030800051F1203181F1E8946F936E7F6E5F7F4F35
:103090008F4F9F4FAF4FB1E03ED0B4E03CD0670FB1
:1030A000781F891F9A1FA11D680F791F8A1F911D04
:1030B000A11D6A0F711D811D911DA11D20D009F454
:1030C00068943F912AE0269F11243019305D319396
:1030D000DEF6CF010895462F4770405D4193B3E07F
:1030E0000FD0C9F7F6CF462F4F70405D4A3318F026
:1030F000495D31FD4052419302D0A9F7EACFB4E0D7
:10310000A6959795879577956795BA95C9F700978E
:103110006105710508959B01AC010A2E069457952F
:10312000479537952795BA95C9F7620F731F841F86
:10313000951FA01D0895F894FFCF0132003200FFC3
:10314000FF640001000200014C756D48616E646C03
:10315000657220284D414E55414C293A2020505748
:103160004D4156414C55453A25642050574D4256E5
:10317000414C55453A256400005349443838002AEB
:103180002A2A204170703A2025730A0056322E30C8
:103190002031342E31322E30342D30373A34362E21
:1031A0003530002A2A2A205665723A2025730A00F3
:1031B0002A2A2A20436F6D6D616E64733A202D3E7A
:1031C0000A002A2A2A202020202A662020202020C7
:1031D00053686F772053706565644C696D697446F8
:1031E0006C6173680A002A2A2A202020202A68207D
:1031F0002020202053686F772048656C70202D2098
:10320000746869730A002A2A2A202020202A6C2048
:103210002020202053686F77204C756D696E616E99
:1032200063650A002A2A2A202020202A73202020D1
:10323000202053686F772053706565640A002A2A3E
:103240002A202020202A74202020202053686F77F5
:103250002054696D656F75740A002A2A2A2020207F
:10326000202A76202020202053686F772056657210
:1032700073696F6E0A002A2A2A202020202A432000
:1032800020202020436C65617220446973706C615A
:10329000790A002A2A2A202020202A467373202017
:1032A000205365742053706565644C696D6974467C
:1032B0006C6173682C2073733A2031202D203939CA
:1032C000206B6D740A002A2A2A202020202A4C6CA8
:1032D0006C6C2020536574204C756D696E616E6353
:1032E000652C206C6C6C3A203020284175746F502E
:1032F000574D29206F722031202D20313030202869
:103300004669786564206C6576656C290A002A2A0E
:103310002A202020202A4C41202020205365742080
:103320004C756D696E616E63652C20413A20320ADE
:10333000002A2A2A202020202A4C42202020205304
:103340006574204C756D696E616E63652C20423A20
:1033500020340A002A2A2A202020202A4C43202018
:103360002020536574204C756D696E616E63652C09
:1033700020433A20360A002A2A2A202020202A4CDC
:103380004420202020536574204C756D696E616E59
:1033900063652C20443A2032300A002A2A2A202051
:1033A00020202A4C4520202020536574204C756D28
:1033B000696E616E63652C20453A203130300A0019
:1033C0002A2A2A202020202A4C462020202053650B
:1033D00074204C756D696E616E63652C20463A20D1
:1033E0003130300A002A2A2A202020202A537676DB
:1033F0002020205365742053706565642C207676F8
:103400003A2031202D203939206B6D740A002A2A88
:103410002A202020202A547474742020536574209C
:1034200054696D656F75742C207474743A20302063
:10343000284E6F2074696D656F757429206F722036
:1034400031202D2036303020312F31307365630A22
:10345000002A2A2A202020202A58202020202053F9
:103460007461727420412F440A002A2A2A202020E5
:103470002045786520636D643A204352202831331B
:10348000290A002A2A2A20436F6D6D616E64733AFF
:10349000203C2D0A002A2A2A2020202020434D44A7
:1034A000202B204F4B202F204552524F52202F20AF
:1034B000554E4B4E4F574E0A002A2A2A20496E6617
:1034C0006F3A203C2D0A002A2A2A2020202020237F
:1034D00020496E666F726D6174696F6E2E2E2E0AB2
:1034E000002A2A2A20456E640A002A662053706545
:1034F00065644C696D6974466C6173683D25642030
:103500005B6B6D745D0A002A6C204C756D3D256403
:1035100020284175746F50574D29002A6C204C7536
:103520006D3D2564002A7265626F6F74002A554EE6
:103530004B4E4F574E2025730A002A732053706557
:1035400065643D2564205B6B6D745D0A002A742000
:1035500054696D653D2564205B312F31307365639F
:103560005D0A002A43204F4B0A002A46204F4B2079
:1035700053706565644C696D6974466C6173683D30
:103580002564205B6B6D745D0A002A46204552520B
:103590004F522028312D3E3939292025730A002A1F
:1035A0004C204552524F522028302D3E3130302091
:1035B0006F7220412D3E4629202573002A4C412060
:1035C0004F4B204C756D3D32002A4C42204F4B2012
:1035D0004C756D3D34002A4C43204F4B204C756D8B
:1035E0003D36002A4C44204F4B204C756D3D323007
:1035F000002A4C45204F4B204C756D3D313030003A
:103600002A4C46204F4B204C756D3D313030002AFE
:103610004C204552524F522028412D3E462920250C
:1036200073002A4C30204F4B204C756D3D25642093
:10363000284175746F50574D29002A4C204F4B205C
:103640004C756D3D2564002A4C204552524F522046
:1036500028302D3E31303029202573002A53204F49
:103660004B2053706565643D2564205B6B6D745D14
:103670000A002A53204552524F522028312D3E39FC
:1036800039292025730A002A54204552524F5220CE
:1036900028302D3E363030292025730A002A542048
:1036A0004F4B2054696D653D2564205B312F3130CF
:1036B0007365635D0A002A56204170703A202573B5
:1036C000205665723A2025730A002A58204144206A
:1036D0004F4B0A002A554E4B4E4F574E20636F6D8D
:1036E0006D616E6420222573220A004C756D48615D
:1036F0006E646C65723A204C55583D2575205057C4
:103700004D3D25640A002A2A2A20424F4F54202A80
:103710002A2A0A00232048423A2025642053746153
:1037200072742E2E2E0A002348423A20256C7520F2
:10373000533D256420543D256420463D2564204C9E
:103740003D25750A002441443A2046433D25642026
:1037500042433D25640A002442473A2053433D2515
:10376000642046433D2564200A002453433A202523
:103770006420256420256420256420256420256498
:10378000202564200A0040792430191202780010A4
:10379000FF00FFFFFFFFFFFFFFFFFFFFFFFFFFFF38
:1037A000FFFFFFFFFFFFFFFFFFFFFFFFFFFFFFFF29
:1037B000FFFFFFFFFFFFFFFFFFFFFFFFFFFFFFFF19
:1037C000FFFFFFFFFFFFFFFFFFFFFFFFFFFFFFFF09
:1037D000FFFFFFFFFFFFFFFFFFFFFFFFFFFFFFFFF9
:020000021000EC
:10DFF000FFFFFFFFFFFFFFFFFFFFFFFFB46570168E
:10E000000C94C8F00C9403F10C9403F10C9403F1FC
:10E010000C9403F10C9403F10C9403F10C9403F1B0
:10E020000C9403F10C9403F10C9403F10C9403F1A0
:10E030000C9405F10C9403F10C9403F10C9403F18E
:10E040000C9403F10C9403F10C9403F10C9403F180
:10E050000C9403F10C9403F10C9403F10C9403F170
:10E060000C9403F10C9403F10C9403F10C9403F160
:10E070000C9403F10C9403F10C942AF10C9499F193
:10E080000C94EAF10C9403F10C9403F16E616E00B0
:10E09000696E660000407A10F35A00A0724E1809AB
:10E0A0000010A5D4E80000E87648170000E40B54FF
:10E0B000020000CA9A3B000000E1F50500008096CE
:10E0C0009800000040420F000000A0860100000000
:10E0D000102700000000E8030000000064000000BA
:10E0E00000000A00000000000100000000002C7683
:10E0F000D888DC674F0823DFC1DFAE59E1B1B7969E
:10E10000E5E3E453C63AE651997696E8E6C28426FA
:10E11000EB898C9B62ED407C6FFCEFBC9C9F40F2D6
:10E12000BAA56FA5F490055A2AF75C936B6CF96752
:10E130006DC11BFCE0E40D47FEF520E6B500D0ED17
:10E14000902E0300943577050080841E080000207F
:10E150004E0A000000C80C333333330F986E12831D
:10E160001141EF8D2114893BE65516CFFEE6DB18F1
:10E17000D1844B381BF77C1D901DA4BBE4242032B6
:10E1800084725E228100C9F124ECA1E53D270EF7DF
:10E1900011241FBECFEFD0E1DEBFCDBF11E0A0E064
:10E1A000B1E0E0E0FBEF01E00BBF02C007900D9291
:10E1B000A832B107D9F72AE0A8E2B1E001C01D9268
:10E1C000A237B207E1F7A89584B78F7180937106E3
:10E1D00084B7807E84BF81B5886181BD11BC11EE9A
:10E1E000C0E9D1EE01E006C022970109FE010BBF94
:10E1F0000E94EAFBCE38D10781E00807A9F70E9408
:10E200009CF40C947EFD0C9400F01F920F920FB6BC
:10E210000F9211248F939F93AF93BF9380912A0104
:10E2200090912B01A0912C01B0912D010196A11D7F
:10E23000B11D80932A0190932B01A0932C01B093E0
:10E240002D01BF91AF919F918F910F900FBE0F90B5
:10E250001F9018951F920F920FB60F9211240BB6B4
:10E260000F922F933F934F938F939F93EF93FF932F
:10E2700080919B008C71D9F080919B0082FF05C03A
:10E280008091290180618093290180919B0083FF07
:10E2900005C08091290184608093290180919B00B1
:10E2A00084FF05C0809129018860809329018091B5
:10E2B00051029091520220915302309154020196E2
:10E2C00091708217930729F48091290182608093CD
:10E2D000290140919C008091510290915202019637
:10E2E000917020915302309154028217930759F490
:10E2F00020915302309154022F5F3F4F3170309381
:10E300005402209353029093520280935102FC01D5
:10E31000EF5AFD4F4483FF91EF919F918F914F9161
:10E320003F912F910F900BBE0F900FBE0F901F903B
:10E3300018951F920F920FB60F9211240BB60F92E1
:10E340002F933F938F939F93EF93FF9320915504C7
:10E35000309156048091570490915804281739073A
:10E3600039F12FB7F8948091570490915804019691
:10E3700091709093580480935704FC01EB5AFB4F23
:10E3800084812FBF80939C002091550430915604C6
:10E3900080915704909158042817390771F480919F
:10E3A0009A008F7D80939A0080919A00806403C0C8
:10E3B00080919A008F7D80939A00FF91EF919F91B9
:10E3C0008F913F912F910F900BBE0F900FBE0F902A
:10E3D0001F9018951F920F920FB60F9211242F9332
:10E3E0003F938F939F9380919A008F7B80939A00A5
:10E3F000209155043091560480915704909158040F
:10E400002817390711F4109228019F918F913F919D
:10E410002F910F900FBE0F901F9018951092290109
:10E42000109228018FB7F894109254021092530260
:10E4300010925202109251028FBF8FB7F89410922F
:10E4400058041092570410925604109255048FBF2E
:10E450001092980085E08093990086E080939D005B
:10E46000EAE9F0E080818860808380818061808338
:10E470008081806880830895A4E0B0E0E2E4F2EF58
:10E480000C94BDFB10925D0610925E0610925F0622
:10E4900010926006C12CD12C7601EBBEF60187915B
:10E4A0009791A791B69189839A83AB83BC8324E02B
:10E4B000C20ED11CE11CF11C00915D0610915E069C
:10E4C00020915F063091600644E050E060E070E02B
:10E4D000CE0101960E94C2F760935D0670935E06BE
:10E4E00080935F0690936006A8952CEFC2162FEDDF
:10E4F000D20621E0E206F10481F6EBBEF601C790F8
:10E50000D790E790F69021E0C616D706E806F90600
:10E5100009F020E0209332012496E8E00C94D9FB26
:10E52000A0E0B0E0E6E9F2EF0C94BDFB2FB7F89461
:10E5300033E0FB0180935B0030936800E8952FBFC8
:10E540002091680020FDFCCF04C030936800E8955E
:10E5500001C031E12091680026FDF7CF00E010E016
:10E560009801D1E0CFB7F89468017901C60ED71EA3
:10E57000E81EF91EFA01A191B191AF010D01F6015A
:10E58000E0925B00D0936800E8951124CFBF0E5F46
:10E590001F4F2F4F3F4F0115F1E01F072105310598
:10E5A00009F72FB7F89435E0FB0180935B003093B7
:10E5B0006800E8952FBF91E103C090936800E8954B
:10E5C0008091680086FDF9CFCDB7DEB7E8E00C9406
:10E5D000D9FBF89491EC9093740A90913101892BB6
:10E5E00090913001992311F090E101C090E0892BC6
:10E5F0008093760A0E9485F70F931F938FB7F89444
:10E6000000912A0110912B0120912C0130912D01B4
:10E610008FBFB801C9011F910F9108959FB7F8945A
:10E6200021E0209328016FB7F89420915504309190
:10E6300056042F5F3F4F317040915704509158045A
:10E640002417350759F440915704509158044F5FEF
:10E650005F4F5170509358044093570430935604C1
:10E6600020935504F901EB5AFB4F84836FBF8091CF
:10E670009A00806280939A009FBF0895A4E0B0E062
:10E68000E4E4F3EF0C94BBFB82E40E940EF383E41A
:10E690000E940EF384E40E940EF385E40E940EF3C0
:10E6A00003E411E0F80181918F010E940EF3F1E083
:10E6B0000D341F07B9F74AE050E060E070E083E4F2
:10E6C00091E00E94FEF76B017C0169837A838B8362
:10E6D0009C838091470190914801A0914901B0919C
:10E6E0004A01892B8A2B8B2B51F427C0F801819189
:10E6F0008F010E940EF3FFEFAF1ABF0A04C0A12CD6
:10E70000B12C0DE411E04091470150914801609116
:10E71000490170914A01C501A0E0B0E08417950756
:10E72000A607B70718F3970186018DE491E00E94D0
:10E73000C2F769837A838B839C8389810E940EF35D
:10E740008A810E940EF38B810E940EF38C810E94BD
:10E750000EF32496EAE00C94D7FB10924401109239
:10E760004301909346018093450110924701109216
:10E7700048011092490110924A010E943EF3089507
:10E7800080913B01882309F4D6C080914501909186
:10E7900046018436910571F00E94FCF26455724F77
:10E7A0008F4F9F4F609333017093340180933501F5
:10E7B00090933601809145019091460180319105F9
:10E7C00009F064C00E943CF284E494E0A0E0B0E070
:10E7D00080934D0190934E01A0934F01B09350014F
:10E7E00080E090EEA1E0B0E080935101909352015F
:10E7F000A0935301B0935401109255011092560109
:10E80000109257011092580187E1E0E0F1E0A9E58C
:10E81000B1E001900D928A95E1F780915D069091AB
:10E820005E06A0915F06B091600680937901909397
:10E830007A01A0937B01B0937C0180913201809397
:10E840007D0180E092E09093A4018093A30180E099
:10E8500091E09093A6018093A5011092440110923B
:10E86000430180E094E090934601809345018AE55E
:10E8700090E0A0E0B0E08093470190934801A0931E
:10E880004901B0934A010E943EF3089582309105F8
:10E89000F9F481E0809331011092320160914B01D3
:10E8A00070914C01CB01A0E0B0E06627782F892F52
:10E8B0009A2F611520EE720721E08207910518F06A
:10E8C00081E094E00DC04DE451E00E9490F206C05A
:10E8D0008B30910519F08330910529F480E094E0A4
:10E8E0000E94ADF308958D309105A9F48091320115
:10E8F000811102C00E943CF280913201882301F311
:10E9000080E094E00E94ADF388EE93E00E947CF7F3
:10E9100082E00E94E9F28F30910551F480E094E0AA
:10E920000E94ADF388EE93E00E947CF70E9485F789
:10E930008230944C29F608950E9490F7139A119A08
:10E940008B9A10988A981B9A1092300180917106C8
:10E95000811117C08091720A9091730A813E9B4A7F
:10E9600019F41092740A03C082ED8093740A81EE48
:10E970009BEA9093730A8093720A1092750A0E9420
:10E9800085F783FF29C08091720A9091730A813EB6
:10E990009B4AF9F48091750A809371068091740AFC
:10E9A000813C99F41092730A1092720AF894A89517
:10E9B00085B7982F916095BF8D7F85BF8AE090E0E5
:10E9C0000E947CF7E0E0F0E009958091740A823DB6
:10E9D00019F481E08093300181EE9BEA9093730AF1
:10E9E0008093720A1092740A809171068093750A5E
:10E9F00081E085BF82E085BF78941FBC89E08EBD31
:10EA000082E39BE29BBD8ABD80E187BF109231010A
:10EA10000E943CF2A89580913201882349F08091B0
:10EA20003001882309F4E5C1809131018111E1C1F0
:10EA30000E94FCF26455724F8F4F9F4F60933301D9
:10EA40007093340180933501909336010E94FCF25B
:10EA500060933701709338018093390190933A01A4
:10EA60000E940EF210923B01C12CD12C7601D3945E
:10EA700014E001E042E0B42E80913C01882381F053
:10EA80000E94FCF24090590650905A0660905B0636
:10EA900070905C06461657066806790608F484C12D
:10EAA0004091290110922901209151023091520286
:10EAB000809153029091540228173907B9F02FB76B
:10EAC000F894809153029091540201969170909322
:10EAD000540280935302FC01EF5AFD4F84812FBFF3
:10EAE000D42FF0E0CF2F9E01282B02C020E031E090
:10EAF000C90188279E71892B49F134FF09C0809193
:10EB00003D0190913E01816090933E0180933D01D3
:10EB100033FF09C080913D0190913E018260909346
:10EB20003E0180933D0132FF09C080913D019091EB
:10EB30003E01846090933E0180933D0131FF34C1DA
:10EB400080913D0190913E0188602AC1211581E0AC
:10EB5000380709F430C180913C01823009F461C06A
:10EB600030F4882359F0813009F09ACF1BC08330EC
:10EB700009F4A4C0843009F093CFCCC0223409F04A
:10EB80008FCF0E94FCF268537F4F8F4F9F4F60934F
:10EB9000590670935A0680935B0690935C06009327
:10EBA0003C012EC080913F0190914001A091410114
:10EBB000B0914201AC01BD014F5F5F4F6F4F7F4F7E
:10EBC00040933F0150934001609341017093420193
:10EBD00081309105A105B10559F030F00297A105EA
:10EBE000B10509F05DCF08C0233409F459CF11C035
:10EBF000243409F455CF0DC0253459F4B0923C01AA
:10EC000010923F0110924001109241011092420176
:10EC100047CF10923C0180913D0190913E0180626E
:10EC200048C080913F0190914001A0914101B09175
:10EC30004201FC01ED5BFE4F20830196A11DB11D39
:10EC400080933F0190934001A0934101B093420112
:10EC50000A97A105B10508F423CF8091470190914F
:10EC60004801A0914901B0914A010097A105B10561
:10EC700011F023E001C024E020933C0110923F01F9
:10EC80001092400110924101109242018130914056
:10EC9000A105B10508F404CFC0924701D092480104
:10ECA000E0924901F0924A0180913D0190913E012C
:10ECB000806490933E0180933D01F2CE80913F01AC
:10ECC00090914001A0914101B0914201FC01ED5BA6
:10ECD000FE4F22870196A11DB11D80933F019093A5
:10ECE0004001A0934101B09342010097A105B105F5
:10ECF00071F0409147015091480160914901709134
:10ED00004A0184179507A607B70708F4C9CE1093E0
:10ED10003C0176CF40913F0150914001609141010B
:10ED200070914201DB01CA010196A11DB11D8093C2
:10ED30003F0190934001A0934101B0934201FA0139
:10ED4000E35BFD4F20830497A105B10509F0A8CE30
:10ED5000809145019091460197FD29C0409147015E
:10ED6000509148016091490170914A01465F5F4F9F
:10ED70006F4F7F4F83E491E00E94FEF740904D0279
:10ED800050904E0260904F02709050024616570607
:10ED90006806790661F080913D0190913E018061A5
:10EDA00090933E0180933D0110923C0104C010926B
:10EDB0003C0181E001C080E080933B0181112AC0C9
:10EDC0000E94FCF240903301509034016090350174
:10EDD000709036016415750586059705D8F00E9478
:10EDE0003CF280913201882339F08AE090E00E9461
:10EDF0007CF784E00E94E9F20E94FCF26455724FB5
:10EE00008F4F9F4F6093330170933401809335018E
:10EE1000909336010E94C0F3A8952ECE1FBC89E0C6
:10EE20008EBD82E39BE29BBD8ABD80E187BF0E94CD
:10EE30000EF28DE191E090932F0180932E012091AD
:10EE400061063091620640916306509164066091BC
:10EE50006506709166068091670690916806A1E04C
:10EE60000E94EEFB20936106309362064093630696
:10EE700050936406609365067093660680936706F8
:10EE8000909368060E94FAFB41F4109233011092AD
:10EE900034011092350110923601209169063091AB
:10EEA0006A0640916B0650916C0660916D067091F8
:10EEB0006E0680916F0690917006A1E00E94EEFBB5
:10EEC0002093690630936A0640936B0650936C0654
:10EED00060936D0670936E0680936F069093700634
:10EEE0000E94FAFB41F410923701109238011092FF
:10EEF000390110923A0108952CEC3AE003C0F9016F
:10EF00003197F1F70197D8F70895F89428E088E150
:10EF100090E00FB6F894A89581BD0FBE21BDFFCF3C
:10EF20000F931F93CF93E2E7F6E040E050E0BA0181
:10EF3000DB01CA01C8E08C019D0136952795179524
:10EF4000079580FF09C080E293E8A8EBBDEE80271B
:10EF50009127A227B32702C0D901C801C15059F790
:10EF600081939193A193B1934F5F5F4F6F4F7F4F09
:10EF7000411581E0580761057105D1F6CF911F91C8
:10EF80000F910895A0E0B0E0E8ECF7EF0C94BDFB22
:10EF90000095109520953095FC01C12CD12C76015F
:10EFA0001DC0C191BB27A32F922F812F112722278C
:10EFB00033270C27E801CC0FDD1FCC0FDD1FCE5807
:10EFC000D94F088119812A813B81082719272A27CF
:10EFD0003B278FEFC81AD80AE80AF80AC416D506E4
:10EFE000E606F706F1F60095109520953095B801E4
:10EFF000C901CDB7DEB7E8E00C94D9FB0F931F939E
:10F0000000E010E098010E94C2F71F910F9108954F
:10F010002F923F924F925F926F927F928F929F9228
:10F02000AF92BF92CF92DF92EF92FF920F931F9316
:10F03000CF93DF93CDB7DEB762970FB6F894DEBFFC
:10F040000FBECDBF7C011B016A01FC011782168235
:10F05000838181FD03C06BC3650105C0882483944F
:10F06000912C8C0E9D1EF7019381F10193FD8591EA
:10F0700093FF81911F01882309F455C3853239F428
:10F0800093FD859193FF81911F01853231F4B70182
:10F0900090E00E94F4FC5601DFCF712C612C20E03F
:10F0A0002032A8F48B3261F028F4803251F08332A0
:10F0B00071F40BC08D3239F0803349F4216028C0DF
:10F0C0002260246025C0286023C0206121C027FD64
:10F0D00027C0382F30533A3078F426FF06C0FAE0C4
:10F0E0007F9E300D1124732E13C04AE0649E300DB4
:10F0F0001124632E20620CC08E3221F426FD13C32E
:10F10000206406C08C3611F4206802C0883641F4B1
:10F11000F10193FD859193FF81911F018111C0CF72
:10F12000982F9554933018F42061805E06C0982F74
:10F130009556933008F0A4C12F7E26FD02C016E03C
:10F14000712EBFE35B2E5222853619F4F0E45F2A5C
:10F1500007C0863619F440E8542A02C071107A9428
:10F1600057FE07C05BE3571548F0472C439427E050
:10F170000DC087E0871530F0272D07C027E0ACE3EE
:10F180004A2E04C027E0F7E07F2E412C560194E080
:10F19000A90EB11CF6016081718182819381042DD9
:10F1A000A4010E9406FC8C0149814C8740FF02C0EB
:10F1B00043FF07C051FC08C052FE09C0E0E2DE2E4A
:10F1C00007C07DE2D72E04C06BE2D62E01C0D12C41
:10F1D0008C858C70A1F1DD2011F084E001C083E00A
:10F1E000861510F0612C0BC0681A53FC08C0B701DB
:10F1F00080E290E00E94F4FC6A94C9F7F3CFDD202E
:10F2000029F0B7018D2D90E00E94F4FC5C8553FD40
:10F2100003C000E910EE0CC00CE810EE09C051105C
:10F220008052B70190E00E94F4FC0F5F1F4F02C0B4
:10F2300080E15822F80184918111F1CF71C257FE0B
:10F240000EC0400E4C8544FF04C08A81813309F40E
:10F250004A9414144CF558E0541548F12CC056FC4F
:10F260002AC0872D90E08017910744F00C3F8FEF64
:10F27000180724F090E8592A01C07A94772049F0C1
:10F28000E2E0F0E0EC0FFD1FE70DF11D808180331F
:10F29000A1F357FE10C0472C4394872D90E0081728
:10F2A000190744F4701A07C04424439404C058E07A
:10F2B000452E01C0712C57FE07C0101611063CF4F4
:10F2C00098012F5F3F4F05C025E030E002C021E0EC
:10F2D00030E0DD2011F02F5F3F4F772031F0472DD8
:10F2E00050E04F5F5F4F240F351F462D50E024172D
:10F2F000350714F4621A01C0612C852D897049F418
:10F3000006C0B70180E290E00E94F4FC6A946110AC
:10F31000F8CFDD2029F0B7018D2D90E00E94F4FC9C
:10F3200053FC09C006C0B70180E390E00E94F4FCE2
:10F330006A946110F8CF57FE56C0680117FF02C0EB
:10F34000C12CD12C20E030E0A801441951095E877E
:10F350004D8728014C185D08480C591C872D90E0FA
:10F3600044275527481B590B588B4F875FEFC5160D
:10F37000D50649F4B7018EE290E02A8B398B0E94C2
:10F38000F4FC39892A890C151D0554F04D855E85DC
:10F390004C155D052CF4F201E20FF31F818101C0D1
:10F3A00080E351E0C51AD1082F5F3F4F4F85588940
:10F3B000C416D5064CF0B70190E02A8B398B0E9419
:10F3C000F4FC2A893989D2CFC016D10649F49A8132
:10F3D000963328F4953321F45C8554FD01C081E314
:10F3E000B70190E04AC08A81813319F04C854F7E85
:10F3F0004C87B70190E00E94F4FC711005C054FEE8
:10F4000016C085E490E015C0B7018EE290E00E943E
:10F41000F4FC42E0D42EF401ED0DF11DD394B701BC
:10F42000808190E00E94F4FC7A94A9F7E8CF85E609
:10F4300090E0B7010E94F4FC17FD06C0011511050C
:10F4400041F45C8554FF05C01195019511098DE2C9
:10F4500001C08BE2B70190E00E94F4FC80E303C09E
:10F460008F5F0A5011090A301105D4F7B70190E0F7
:10F470000E94F4FCB701C801C0960E94F4FC50C180
:10F48000833631F0833781F0833509F05EC024C0C4
:10F49000560182E0A80EB11CF60180818983CC243C
:10F4A000C394D12C840114C05601F2E0AF0EB11CFC
:10F4B000F6010081118126FF03C0672D70E002C0B4
:10F4C0006FEF7FEFC8012A8B0E94E9FC6C012A894B
:10F4D0009FE7592E522217C05601F2E0AF0EB11C21
:10F4E000F6010081118126FF03C0672D70E002C084
:10F4F0006FEF7FEFC8012A8B0E94DEFC6C012A8926
:10F5000080E8582E522A53FC1CC006C0B70180E286
:10F5100090E00E94F4FC6A94862D90E0C816D9060B
:10F52000A8F30FC0F80157FC859157FE81918F0118
:10F53000B70190E00E94F4FC61106A94F1E0CF1AE8
:10F54000D108C114D10471F7EBC0843611F08936AB
:10F5500051F5560127FF09C044E0A40EB11CF60185
:10F5600060817181828193810AC0F2E0AF0EB11C8B
:10F57000F60160817181882777FD8095982F122F81
:10F580001F7697FF08C090958095709561957F4F85
:10F590008F4F9F4F10682AE030E0A4010E9420FDA9
:10F5A000D82ED81840C0122F853721F41F7E2AE0AC
:10F5B00030E01FC0197F8F36A1F020F4883509F0A4
:10F5C000B2C00BC0803721F0883709F0ACC001C051
:10F5D000106114FF09C0146007C024FF08C0166042
:10F5E00006C028E030E005C020E130E002C020E1A4
:10F5F00032E0560117FF09C0F4E0AF0EB11CF6016E
:10F60000608171818281938108C0F2E0AF0EB11CEC
:10F61000F6016081718180E090E0A4010E9420FDEC
:10F62000D82ED8181F7716FF0BC0212F2E7FD71486
:10F6300050F414FF0AC012FD08C0212F2E7E05C011
:10F640000D2D212F03C00D2D01C0072D24FF0CC04F
:10F65000FE01ED0DF11D8081803311F4297E08C07B
:10F6600022FF05C00E5F04C0822F867809F00F5F6D
:10F6700023FD14C020FF0FC07D2C061560F4760C0E
:10F68000701A062D08C0B70180E290E02A8B0E9414
:10F69000F4FC0F5F2A890615B0F304C0061510F4B8
:10F6A000601A01C0612C24FF12C0B70180E390E012
:10F6B0002A8B0E94F4FC2A8922FF1EC021FF03C06E
:10F6C00088E590E002C088E790E0B7010CC0822F87
:10F6D000867891F021FD02C080E201C08BE227FD17
:10F6E0008DE2B70190E00E94F4FC06C0B70180E310
:10F6F00090E00E94F4FC7A94D714C0F3DA94F401F9
:10F70000ED0DF11DB701808190E00E94F4FCD11055
:10F71000F5CF06C0B70180E290E00E94F4FC6A9445
:10F720006110F8CF99CCF7012681378102C02FEF05
:10F730003FEFC90162960FB6F894DEBF0FBECDBF92
:10F74000DF91CF911F910F91FF90EF90DF90CF90BD
:10F75000BF90AF909F908F907F906F905F904F90F1
:10F760003F902F9008952F923F924F925F926F9209
:10F770007F928F929F92AF92BF92CF92DF92EF9241
:10F78000FF920F931F93CF93DF93CDB7DEB7CA1BC2
:10F79000DB0B0FB6F894DEBF0FBECDBF09942A88ED
:10F7A000398848885F846E847D848C849B84AA8495
:10F7B000B984C884DF80EE80FD800C811B81AA8122
:10F7C000B981CE0FD11D0FB6F894DEBF0FBECDBFED
:10F7D000ED0108950790F691E02D09940024A7FD0E
:10F7E00000942A0F301D401D501D601D701D801D8E
:10F7F000901D08950024A7FD00942A1730054005A8
:10F80000500560057005800590050895283008F0C2
:10F8100027E03327DA01990F311D87FD91600096AB
:10F820006105710539F432602E5F3D9330E32A950E
:10F83000E1F708959F3F30F080387105610509F0C8
:10F840003C5F3C5F3D93913008F08068911DDF93F1
:10F85000CF931F930F93FF92EF92192F987F969556
:10F86000E92F96959695E90FFF27E251FF419927D9
:10F870003327EE24FF24A701E7010590089407949D
:10F8800028F4360FE71EF81E491F511D660F771F1B
:10F89000881F991F0694A1F70590079428F4E70E96
:10F8A000F81E491F561FC11D770F881F991F661F1D
:10F8B0000694A1F70590079428F4F80E491F561FE7
:10F8C000C71FD11D880F991F661F771F0694A1F7C8
:10F8D0000590079420F4490F561FC71FD81F990F92
:10F8E000661F771F881F0694A9F7849110951770DB
:10F8F00041F0D695C79557954795F794E7941A9593
:10F90000C1F7E4E9F0EE6894159015913591659191
:10F91000959105907FE27395E118F10A430B560B20
:10F92000C90BD009C0F7E10CF11E431F561FC91FB8
:10F93000D01D7EF4703311F48A95E6CFE89401501F
:10F9400030F0080F0AF40027021708F4202F23953F
:10F95000022F7A3328F079E37D932A95E9F710C0D6
:10F960007D932A9589F6069497956795379517950F
:10F970001794E118F10A430B560BC90BD00998F004
:10F9800023957E9173957A3308F070E37C9320136E
:10F99000B8F77E9170617D9330F0839571E37D932C
:10F9A00070E32A95E1F71124EF90FF900F911F91DA
:10F9B000CF91DF91992787FD90950895FC010590DF
:10F9C000615070400110D8F7809590958E0F9F1F61
:10F9D0000895FC016150704001900110D8F78095A6
:10F9E00090958E0F9F1F08950F931F93CF93DF93D2
:10F9F0008C01EB018B8181FD03C00FEF1FEF1AC05B
:10FA000082FF0DC02E813F818C819D81281739078F
:10FA100064F4E881F9810193F983E88306C0E885FD
:10FA2000F985802F0995892B41F78E819F81019659
:10FA30009F838E83C801DF91CF911F910F9108950D
:10FA4000FA01AA27283051F1203181F1E8946F930F
:10FA50006E7F6E5F7F4F8F4F9F4FAF4FB1E03ED0B5
:10FA6000B4E03CD0670F781F891F9A1FA11D680F53
:10FA7000791F8A1F911DA11D6A0F711D811D911D86
:10FA8000A11D20D009F468943F912AE0269F1124FB
:10FA90003019305D3193DEF6CF010895462F47705F
:10FAA000405D4193B3E00FD0C9F7F6CF462F4F70BA
:10FAB000405D4A3318F0495D31FD4052419302D018
:10FAC000A9F7EACFB4E0A6959795879577956795BE
:10FAD000BA95C9F700976105710508959B01AC01BE
:10FAE0000A2E06945795479537952795BA95C9F7E5
:10FAF000620F731F841F951FA01D0895F894FFCFF8
:10FB000056322E302031342E31312E32362D3132D4
:10FB10003A31352E3032000000000000001D012770
:10FB20000100000000000000FFFFFFFFFFFFFFFFDC
:10FB3000FFFFFFFFFFFFFFFFFFFFFFFFFFFFFFFFD5
:10FB4000FFFFFFFFFFFFFFFFFFFFFFFFFFFFFFFFC5
:10FB5000FFFFFFFFFFFFFFFFFFFFFFFFFFFFFFFFB5
:10FB6000FFFFFFFFFFFFFFFFFFFFFFFFFFFFFFFFA5
:10FFF000FFFFFFFFFFFFFFFFFFFFFFFF5119BD6680
:00000001FF
